{
  "_format": "hh-sol-artifact-1",
  "contractName": "WeatherOracle",
  "sourceName": "contracts/WeatherOracle.sol",
  "abi": [
    {
      "inputs": [
        {
          "internalType": "address",
          "name": "_link",
          "type": "address"
        },
        {
          "internalType": "address",
          "name": "_oracle",
          "type": "address"
        },
        {
          "internalType": "bytes32",
          "name": "_jobId",
          "type": "bytes32"
        }
      ],
      "stateMutability": "nonpayable",
      "type": "constructor"
    },
    {
      "inputs": [
        {
          "internalType": "address",
          "name": "owner",
          "type": "address"
        }
      ],
      "name": "OwnableInvalidOwner",
      "type": "error"
    },
    {
      "inputs": [
        {
          "internalType": "address",
          "name": "account",
          "type": "address"
        }
      ],
      "name": "OwnableUnauthorizedAccount",
      "type": "error"
    },
    {
      "anonymous": false,
      "inputs": [
        {
          "indexed": true,
          "internalType": "bytes32",
          "name": "id",
          "type": "bytes32"
        }
      ],
      "name": "ChainlinkCancelled",
      "type": "event"
    },
    {
      "anonymous": false,
      "inputs": [
        {
          "indexed": true,
          "internalType": "bytes32",
          "name": "id",
          "type": "bytes32"
        }
      ],
      "name": "ChainlinkFulfilled",
      "type": "event"
    },
    {
      "anonymous": false,
      "inputs": [
        {
          "indexed": true,
          "internalType": "bytes32",
          "name": "id",
          "type": "bytes32"
        }
      ],
      "name": "ChainlinkRequested",
      "type": "event"
    },
    {
      "anonymous": false,
      "inputs": [
        {
          "indexed": true,
          "internalType": "address",
          "name": "previousOwner",
          "type": "address"
        },
        {
          "indexed": true,
          "internalType": "address",
          "name": "newOwner",
          "type": "address"
        }
      ],
      "name": "OwnershipTransferred",
      "type": "event"
    },
    {
      "anonymous": false,
      "inputs": [
        {
          "indexed": true,
          "internalType": "bytes32",
          "name": "requestId",
          "type": "bytes32"
        },
        {
          "indexed": false,
          "internalType": "string",
          "name": "city",
          "type": "string"
        },
        {
          "indexed": false,
          "internalType": "int256",
          "name": "temperature",
          "type": "int256"
        },
        {
          "indexed": false,
          "internalType": "string",
          "name": "description",
          "type": "string"
        },
        {
          "indexed": false,
          "internalType": "uint256",
          "name": "timestamp",
          "type": "uint256"
        }
      ],
      "name": "WeatherReported",
      "type": "event"
    },
    {
      "anonymous": false,
      "inputs": [
        {
          "indexed": true,
          "internalType": "bytes32",
          "name": "requestId",
          "type": "bytes32"
        },
        {
          "indexed": false,
          "internalType": "string",
          "name": "city",
          "type": "string"
        },
        {
          "indexed": true,
          "internalType": "address",
          "name": "requester",
          "type": "address"
        }
      ],
      "name": "WeatherRequested",
      "type": "event"
    },
    {
      "inputs": [],
      "name": "chainlinkToken",
      "outputs": [
        {
          "internalType": "address",
          "name": "",
          "type": "address"
        }
      ],
      "stateMutability": "view",
      "type": "function"
    },
    {
      "inputs": [
        {
          "internalType": "bytes32",
          "name": "_requestId",
          "type": "bytes32"
        },
        {
          "internalType": "string",
          "name": "_weatherData",
          "type": "string"
        }
      ],
      "name": "fulfill",
      "outputs": [],
      "stateMutability": "nonpayable",
      "type": "function"
    },
    {
      "inputs": [],
      "name": "jobId",
      "outputs": [
        {
          "internalType": "bytes32",
          "name": "",
          "type": "bytes32"
        }
      ],
      "stateMutability": "view",
      "type": "function"
    },
    {
      "inputs": [],
      "name": "oracle",
      "outputs": [
        {
          "internalType": "address",
          "name": "",
          "type": "address"
        }
      ],
      "stateMutability": "view",
      "type": "function"
    },
    {
      "inputs": [],
      "name": "owner",
      "outputs": [
        {
          "internalType": "address",
          "name": "",
          "type": "address"
        }
      ],
      "stateMutability": "view",
      "type": "function"
    },
    {
      "inputs": [],
      "name": "renounceOwnership",
      "outputs": [],
      "stateMutability": "nonpayable",
      "type": "function"
    },
    {
      "inputs": [
        {
          "internalType": "string",
          "name": "_city",
          "type": "string"
        }
      ],
      "name": "requestWeather",
      "outputs": [
        {
          "internalType": "bytes32",
          "name": "requestId",
          "type": "bytes32"
        }
      ],
      "stateMutability": "payable",
      "type": "function"
    },
    {
      "inputs": [
        {
          "internalType": "address",
          "name": "_oracle",
          "type": "address"
        }
      ],
      "name": "setChainlinkOracle",
      "outputs": [],
      "stateMutability": "nonpayable",
      "type": "function"
    },
    {
      "inputs": [
        {
          "internalType": "bytes32",
          "name": "_jobId",
          "type": "bytes32"
        }
      ],
      "name": "setJobId",
      "outputs": [],
      "stateMutability": "nonpayable",
      "type": "function"
    },
    {
      "inputs": [
        {
          "internalType": "string",
          "name": "_city",
          "type": "string"
        },
        {
          "internalType": "int256",
          "name": "_temp",
          "type": "int256"
        },
        {
          "internalType": "string",
          "name": "_desc",
          "type": "string"
        }
      ],
      "name": "simulateWeatherReport",
      "outputs": [],
      "stateMutability": "nonpayable",
      "type": "function"
    },
    {
      "inputs": [
        {
          "internalType": "address",
          "name": "newOwner",
          "type": "address"
        }
      ],
      "name": "transferOwnership",
      "outputs": [],
      "stateMutability": "nonpayable",
      "type": "function"
    },
    {
      "inputs": [
        {
          "internalType": "bytes32",
          "name": "",
          "type": "bytes32"
        }
      ],
      "name": "weatherReports",
      "outputs": [
        {
          "internalType": "string",
          "name": "city",
          "type": "string"
        },
        {
          "internalType": "int256",
          "name": "temperature",
          "type": "int256"
        },
        {
          "internalType": "string",
          "name": "description",
          "type": "string"
        },
        {
          "internalType": "uint256",
          "name": "timestamp",
          "type": "uint256"
        }
      ],
      "stateMutability": "view",
      "type": "function"
    },
    {
      "stateMutability": "payable",
      "type": "receive"
    }
  ],
  "bytecode": "0x608060405260016004553480156200001657600080fd5b50604051620032023803806200320283398181016040528101906200003c91906200036b565b33600073ffffffffffffffffffffffffffffffffffffffff168173ffffffffffffffffffffffffffffffffffffffff1603620000b25760006040517f1e4fbdf7000000000000000000000000000000000000000000000000000000008152600401620000a99190620003d8565b60405180910390fd5b620000c3816200017860201b60201c565b50620000d5836200023e60201b60201c565b620000e6826200028260201b60201c565b80600b8190555082600960006101000a81548173ffffffffffffffffffffffffffffffffffffffff021916908373ffffffffffffffffffffffffffffffffffffffff16021790555081600a60006101000a81548173ffffffffffffffffffffffffffffffffffffffff021916908373ffffffffffffffffffffffffffffffffffffffff160217905550505050620003f5565b6000600660009054906101000a900473ffffffffffffffffffffffffffffffffffffffff16905081600660006101000a81548173ffffffffffffffffffffffffffffffffffffffff021916908373ffffffffffffffffffffffffffffffffffffffff1602179055508173ffffffffffffffffffffffffffffffffffffffff168173ffffffffffffffffffffffffffffffffffffffff167f8be0079c531659141344cd1fd0a4f28419497f9722a3daafe3b4186f6b6457e060405160405180910390a35050565b80600260006101000a81548173ffffffffffffffffffffffffffffffffffffffff021916908373ffffffffffffffffffffffffffffffffffffffff16021790555050565b80600360006101000a81548173ffffffffffffffffffffffffffffffffffffffff021916908373ffffffffffffffffffffffffffffffffffffffff16021790555050565b600080fd5b600073ffffffffffffffffffffffffffffffffffffffff82169050919050565b6000620002f882620002cb565b9050919050565b6200030a81620002eb565b81146200031657600080fd5b50565b6000815190506200032a81620002ff565b92915050565b6000819050919050565b620003458162000330565b81146200035157600080fd5b50565b60008151905062000365816200033a565b92915050565b600080600060608486031215620003875762000386620002c6565b5b6000620003978682870162000319565b9350506020620003aa8682870162000319565b9250506040620003bd8682870162000354565b9150509250925092565b620003d281620002eb565b82525050565b6000602082019050620003ef6000830184620003c7565b92915050565b612dfd80620004056000396000f3fe6080604052600436106100ab5760003560e01c80638da5cb5b116100645780638da5cb5b146101a4578063b162dd48146101cf578063c247afe4146101f8578063c2939d9714610238578063f10ecc6514610263578063f2fde38b1461028e576100b2565b80631829ca52146100b757806337441996146100e7578063508954f814610110578063715018a6146101395780637a9b0412146101505780637dc0d1d014610179576100b2565b366100b257005b600080fd5b6100d160048036038101906100cc9190611e80565b6102b7565b6040516100de9190611ee2565b60405180910390f35b3480156100f357600080fd5b5061010e60048036038101906101099190611f29565b6104b8565b005b34801561011c57600080fd5b5061013760048036038101906101329190611f85565b61110a565b005b34801561014557600080fd5b5061014e61111c565b005b34801561015c57600080fd5b5061017760048036038101906101729190612010565b611130565b005b34801561018557600080fd5b5061018e611185565b60405161019b919061204c565b60405180910390f35b3480156101b057600080fd5b506101b96111ab565b6040516101c6919061204c565b60405180910390f35b3480156101db57600080fd5b506101f660048036038101906101f1919061209d565b6111d5565b005b34801561020457600080fd5b5061021f600480360381019061021a9190611f85565b6112c5565b60405161022f94939291906121cf565b60405180910390f35b34801561024457600080fd5b5061024d611405565b60405161025a9190611ee2565b60405180910390f35b34801561026f57600080fd5b5061027861140b565b604051610285919061204c565b60405180910390f35b34801561029a57600080fd5b506102b560048036038101906102b09190612010565b611431565b005b6000808251116102fc576040517f08c379a00000000000000000000000000000000000000000000000000000000081526004016102f39061226e565b60405180910390fd5b600073ffffffffffffffffffffffffffffffffffffffff16600a60009054906101000a900473ffffffffffffffffffffffffffffffffffffffff1673ffffffffffffffffffffffffffffffffffffffff160361038d576040517f08c379a0000000000000000000000000000000000000000000000000000000008152600401610384906122da565b60405180910390fd5b6000801b600b54036103d4576040517f08c379a00000000000000000000000000000000000000000000000000000000081526004016103cb90612346565b60405180910390fd5b662386f26fc1000034101561041e576040517f08c379a0000000000000000000000000000000000000000000000000000000008152600401610415906123d8565b60405180910390fd5b6000610434600b5430633744199660e01b6114b7565b905061044081346114e8565b9150826008600084815260200190815260200160002090816104629190612604565b503373ffffffffffffffffffffffffffffffffffffffff16827f57b7f15c3d8e2616844c1a30ad34cd61e5d36ac0f425bc9439bc614fa2ad2fbd856040516104aa91906126d6565b60405180910390a350919050565b816005600082815260200190815260200160002060009054906101000a900473ffffffffffffffffffffffffffffffffffffffff1673ffffffffffffffffffffffffffffffffffffffff163373ffffffffffffffffffffffffffffffffffffffff161461055a576040517f08c379a00000000000000000000000000000000000000000000000000000000081526004016105519061276a565b60405180910390fd5b6005600082815260200190815260200160002060006101000a81549073ffffffffffffffffffffffffffffffffffffffff0219169055807f7cc135e0cebb02c3480ae5d74d377283180a2601f8f644edf7987b009316c63a60405160405180910390a2600080604051806020016040528060008152509050600084905060005b600682516105e891906127b9565b811015610f9e577f2200000000000000000000000000000000000000000000000000000000000000828281518110610623576106226127ed565b5b602001015160f81c60f81b7effffffffffffffffffffffffffffffffffffffffffffffffffffffffffffff19161480156106c757507f740000000000000000000000000000000000000000000000000000000000000082600183610687919061281c565b81518110610698576106976127ed565b5b602001015160f81c60f81b7effffffffffffffffffffffffffffffffffffffffffffffffffffffffffffff1916145b801561073d57507f6500000000000000000000000000000000000000000000000000000000000000826002836106fd919061281c565b8151811061070e5761070d6127ed565b5b602001015160f81c60f81b7effffffffffffffffffffffffffffffffffffffffffffffffffffffffffffff1916145b80156107b357507f6d0000000000000000000000000000000000000000000000000000000000000082600383610773919061281c565b81518110610784576107836127ed565b5b602001015160f81c60f81b7effffffffffffffffffffffffffffffffffffffffffffffffffffffffffffff1916145b801561082957507f7000000000000000000000000000000000000000000000000000000000000000826004836107e9919061281c565b815181106107fa576107f96127ed565b5b602001015160f81c60f81b7effffffffffffffffffffffffffffffffffffffffffffffffffffffffffffff1916145b801561089f57507f22000000000000000000000000000000000000000000000000000000000000008260058361085f919061281c565b815181106108705761086f6127ed565b5b602001015160f81c60f81b7effffffffffffffffffffffffffffffffffffffffffffffffffffffffffffff1916145b15610b925760006007826108b3919061281c565b90505b82518110801561098d57507f30000000000000000000000000000000000000000000000000000000000000008382815181106108f5576108f46127ed565b5b602001015160f81c60f81b7effffffffffffffffffffffffffffffffffffffffffffffffffffffffffffff1916108061098c57507f390000000000000000000000000000000000000000000000000000000000000083828151811061095d5761095c6127ed565b5b602001015160f81c60f81b7effffffffffffffffffffffffffffffffffffffffffffffffffffffffffffff1916115b5b80156109f857507f2d000000000000000000000000000000000000000000000000000000000000008382815181106109c8576109c76127ed565b5b602001015160f81c60f81b7effffffffffffffffffffffffffffffffffffffffffffffffffffffffffffff191614155b15610a10578080610a0890612850565b9150506108b6565b60008190505b835182108015610b5957507f3000000000000000000000000000000000000000000000000000000000000000848381518110610a5557610a546127ed565b5b602001015160f81c60f81b7effffffffffffffffffffffffffffffffffffffffffffffffffffffffffffff191610158015610aef57507f3900000000000000000000000000000000000000000000000000000000000000848381518110610abf57610abe6127ed565b5b602001015160f81c60f81b7effffffffffffffffffffffffffffffffffffffffffffffffffffffffffffff191611155b80610b5857507f2d00000000000000000000000000000000000000000000000000000000000000848381518110610b2957610b286127ed565b5b602001015160f81c60f81b7effffffffffffffffffffffffffffffffffffffffffffffffffffffffffffff1916145b5b15610b71578180610b6990612850565b925050610a16565b80821115610b8f57610b8c610b8789838561151f565b61161b565b95505b50505b7f2200000000000000000000000000000000000000000000000000000000000000828281518110610bc657610bc56127ed565b5b602001015160f81c60f81b7effffffffffffffffffffffffffffffffffffffffffffffffffffffffffffff1916148015610c6a57507f640000000000000000000000000000000000000000000000000000000000000082600183610c2a919061281c565b81518110610c3b57610c3a6127ed565b5b602001015160f81c60f81b7effffffffffffffffffffffffffffffffffffffffffffffffffffffffffffff1916145b8015610ce057507f650000000000000000000000000000000000000000000000000000000000000082600283610ca0919061281c565b81518110610cb157610cb06127ed565b5b602001015160f81c60f81b7effffffffffffffffffffffffffffffffffffffffffffffffffffffffffffff1916145b8015610d5657507f730000000000000000000000000000000000000000000000000000000000000082600383610d16919061281c565b81518110610d2757610d266127ed565b5b602001015160f81c60f81b7effffffffffffffffffffffffffffffffffffffffffffffffffffffffffffff1916145b8015610dcc57507f630000000000000000000000000000000000000000000000000000000000000082600483610d8c919061281c565b81518110610d9d57610d9c6127ed565b5b602001015160f81c60f81b7effffffffffffffffffffffffffffffffffffffffffffffffffffffffffffff1916145b8015610e4257507f220000000000000000000000000000000000000000000000000000000000000082600583610e02919061281c565b81518110610e1357610e126127ed565b5b602001015160f81c60f81b7effffffffffffffffffffffffffffffffffffffffffffffffffffffffffffff1916145b15610f8b576000600782610e56919061281c565b90505b825181108015610ec857507f2200000000000000000000000000000000000000000000000000000000000000838281518110610e9857610e976127ed565b5b602001015160f81c60f81b7effffffffffffffffffffffffffffffffffffffffffffffffffffffffffffff191614155b15610ee0578080610ed890612850565b915050610e59565b8080610eeb90612850565b91505060008190505b835182108015610f6357507f2200000000000000000000000000000000000000000000000000000000000000848381518110610f3357610f326127ed565b5b602001015160f81c60f81b7effffffffffffffffffffffffffffffffffffffffffffffffffffffffffffff191614155b15610f7b578180610f7390612850565b925050610ef4565b610f8688828461151f565b945050505b8080610f9690612850565b9150506105da565b506000825103610fac578491505b6000600860008881526020019081526020016000208054610fcc90612427565b80601f0160208091040260200160405190810160405280929190818152602001828054610ff890612427565b80156110455780601f1061101a57610100808354040283529160200191611045565b820191906000526020600020905b81548152906001019060200180831161102857829003601f168201915b505050505090506040518060800160405280828152602001858152602001848152602001428152506007600089815260200190815260200160002060008201518160000190816110959190612604565b506020820151816001015560408201518160020190816110b59190612604565b5060608201518160030155905050867f2e401731ceb81f2aaa55c615a658acc8ec0c47a497b4853a4df9b94f8b887f29828686426040516110f994939291906121cf565b60405180910390a250505050505050565b61111261178b565b80600b8190555050565b61112461178b565b61112e6000611812565b565b61113861178b565b80600a60006101000a81548173ffffffffffffffffffffffffffffffffffffffff021916908373ffffffffffffffffffffffffffffffffffffffff160217905550611182816118d8565b50565b600a60009054906101000a900473ffffffffffffffffffffffffffffffffffffffff1681565b6000600660009054906101000a900473ffffffffffffffffffffffffffffffffffffffff16905090565b6111dd61178b565b600083426040516020016111f29291906128f5565b6040516020818303038152906040528051906020012090506040518060800160405280858152602001848152602001838152602001428152506007600083815260200190815260200160002060008201518160000190816112539190612604565b506020820151816001015560408201518160020190816112739190612604565b5060608201518160030155905050807f2e401731ceb81f2aaa55c615a658acc8ec0c47a497b4853a4df9b94f8b887f29858585426040516112b794939291906121cf565b60405180910390a250505050565b60076020528060005260406000206000915090508060000180546112e890612427565b80601f016020809104026020016040519081016040528092919081815260200182805461131490612427565b80156113615780601f1061133657610100808354040283529160200191611361565b820191906000526020600020905b81548152906001019060200180831161134457829003601f168201915b50505050509080600101549080600201805461137c90612427565b80601f01602080910402602001604051908101604052809291908181526020018280546113a890612427565b80156113f55780601f106113ca576101008083540402835291602001916113f5565b820191906000526020600020905b8154815290600101906020018083116113d857829003601f168201915b5050505050908060030154905084565b600b5481565b600960009054906101000a900473ffffffffffffffffffffffffffffffffffffffff1681565b61143961178b565b600073ffffffffffffffffffffffffffffffffffffffff168173ffffffffffffffffffffffffffffffffffffffff16036114ab5760006040517f1e4fbdf70000000000000000000000000000000000000000000000000000000081526004016114a2919061204c565b60405180910390fd5b6114b481611812565b50565b6114bf611c9f565b6114c7611c9f565b6114de8585858461191c909392919063ffffffff16565b9150509392505050565b6000611517600360009054906101000a900473ffffffffffffffffffffffffffffffffffffffff1684846119cc565b905092915050565b606060008490506000848461153491906127b9565b67ffffffffffffffff81111561154d5761154c611d55565b5b6040519080825280601f01601f19166020018201604052801561157f5781602001600182028036833780820191505090505b50905060008590505b8481101561160e578281815181106115a3576115a26127ed565b5b602001015160f81c60f81b8287836115bb91906127b9565b815181106115cc576115cb6127ed565b5b60200101907effffffffffffffffffffffffffffffffffffffffffffffffffffffffffffff1916908160001a905350808061160690612850565b915050611588565b5080925050509392505050565b60008082905060008060005b835181101561176a5760008114801561169e57507f2d0000000000000000000000000000000000000000000000000000000000000084828151811061166f5761166e6127ed565b5b602001015160f81c60f81b7effffffffffffffffffffffffffffffffffffffffffffffffffffffffffffff1916145b156116ac5760019150611757565b60308482815181106116c1576116c06127ed565b5b602001015160f81c60f81b60f81c60ff1610158015611704575060398482815181106116f0576116ef6127ed565b5b602001015160f81c60f81b60f81c60ff1611155b1561175657600a83611716919061291d565b9250603084828151811061172d5761172c6127ed565b5b602001015160f81c60f81b60f81c61174591906129a2565b60000b8361175391906129d7565b92505b5b808061176290612850565b915050611627565b50806117765781611781565b8161178090612a1b565b5b9350505050919050565b611793611a98565b73ffffffffffffffffffffffffffffffffffffffff166117b16111ab565b73ffffffffffffffffffffffffffffffffffffffff1614611810576117d4611a98565b6040517f118cdaa7000000000000000000000000000000000000000000000000000000008152600401611807919061204c565b60405180910390fd5b565b6000600660009054906101000a900473ffffffffffffffffffffffffffffffffffffffff16905081600660006101000a81548173ffffffffffffffffffffffffffffffffffffffff021916908373ffffffffffffffffffffffffffffffffffffffff1602179055508173ffffffffffffffffffffffffffffffffffffffff168173ffffffffffffffffffffffffffffffffffffffff167f8be0079c531659141344cd1fd0a4f28419497f9722a3daafe3b4186f6b6457e060405160405180910390a35050565b80600360006101000a81548173ffffffffffffffffffffffffffffffffffffffff021916908373ffffffffffffffffffffffffffffffffffffffff16021790555050565b611924611c9f565b6119348560800151610100611aa0565b508385600001818152505082856020019073ffffffffffffffffffffffffffffffffffffffff16908173ffffffffffffffffffffffffffffffffffffffff16815250508185604001907bffffffffffffffffffffffffffffffffffffffffffffffffffffffff191690817bffffffffffffffffffffffffffffffffffffffffffffffffffffffff191681525050849050949350505050565b60008060045490506001816119e1919061281c565b6004819055506000634042994660e01b60008087600001513089604001518760018c6080015160000151604051602401611a22989796959493929190612af3565b604051602081830303815290604052907bffffffffffffffffffffffffffffffffffffffffffffffffffffffff19166020820180517bffffffffffffffffffffffffffffffffffffffffffffffffffffffff83818316178352505050509050611a8d86838684611b0a565b925050509392505050565b600033905090565b611aa8611d0c565b6000602083611ab79190612ba7565b14611ae357602082611ac99190612ba7565b6020611ad591906127b9565b82611ae0919061281c565b91505b81836020018181525050604051808452600081528281016020016040525082905092915050565b60003084604051602001611b1f929190612c66565b604051602081830303815290604052805190602001209050846005600083815260200190815260200160002060006101000a81548173ffffffffffffffffffffffffffffffffffffffff021916908373ffffffffffffffffffffffffffffffffffffffff160217905550807fb5e6e01e79f91267dc17b4e6314d5d4d03593d2ceee0fbb452b750bd70ea5af960405160405180910390a2600260009054906101000a900473ffffffffffffffffffffffffffffffffffffffff1673ffffffffffffffffffffffffffffffffffffffff16634000aea08685856040518463ffffffff1660e01b8152600401611c1593929190612c92565b6020604051808303816000875af1158015611c34573d6000803e3d6000fd5b505050506040513d601f19601f82011682018060405250810190611c589190612d08565b611c97576040517f08c379a0000000000000000000000000000000000000000000000000000000008152600401611c8e90612da7565b60405180910390fd5b949350505050565b6040518060a0016040528060008019168152602001600073ffffffffffffffffffffffffffffffffffffffff16815260200160007bffffffffffffffffffffffffffffffffffffffffffffffffffffffff1916815260200160008152602001611d06611d0c565b81525090565b604051806040016040528060608152602001600081525090565b6000604051905090565b600080fd5b600080fd5b600080fd5b600080fd5b6000601f19601f8301169050919050565b7f4e487b7100000000000000000000000000000000000000000000000000000000600052604160045260246000fd5b611d8d82611d44565b810181811067ffffffffffffffff82111715611dac57611dab611d55565b5b80604052505050565b6000611dbf611d26565b9050611dcb8282611d84565b919050565b600067ffffffffffffffff821115611deb57611dea611d55565b5b611df482611d44565b9050602081019050919050565b82818337600083830152505050565b6000611e23611e1e84611dd0565b611db5565b905082815260208101848484011115611e3f57611e3e611d3f565b5b611e4a848285611e01565b509392505050565b600082601f830112611e6757611e66611d3a565b5b8135611e77848260208601611e10565b91505092915050565b600060208284031215611e9657611e95611d30565b5b600082013567ffffffffffffffff811115611eb457611eb3611d35565b5b611ec084828501611e52565b91505092915050565b6000819050919050565b611edc81611ec9565b82525050565b6000602082019050611ef76000830184611ed3565b92915050565b611f0681611ec9565b8114611f1157600080fd5b50565b600081359050611f2381611efd565b92915050565b60008060408385031215611f4057611f3f611d30565b5b6000611f4e85828601611f14565b925050602083013567ffffffffffffffff811115611f6f57611f6e611d35565b5b611f7b85828601611e52565b9150509250929050565b600060208284031215611f9b57611f9a611d30565b5b6000611fa984828501611f14565b91505092915050565b600073ffffffffffffffffffffffffffffffffffffffff82169050919050565b6000611fdd82611fb2565b9050919050565b611fed81611fd2565b8114611ff857600080fd5b50565b60008135905061200a81611fe4565b92915050565b60006020828403121561202657612025611d30565b5b600061203484828501611ffb565b91505092915050565b61204681611fd2565b82525050565b6000602082019050612061600083018461203d565b92915050565b6000819050919050565b61207a81612067565b811461208557600080fd5b50565b60008135905061209781612071565b92915050565b6000806000606084860312156120b6576120b5611d30565b5b600084013567ffffffffffffffff8111156120d4576120d3611d35565b5b6120e086828701611e52565b93505060206120f186828701612088565b925050604084013567ffffffffffffffff81111561211257612111611d35565b5b61211e86828701611e52565b9150509250925092565b600081519050919050565b600082825260208201905092915050565b60005b83811015612162578082015181840152602081019050612147565b60008484015250505050565b600061217982612128565b6121838185612133565b9350612193818560208601612144565b61219c81611d44565b840191505092915050565b6121b081612067565b82525050565b6000819050919050565b6121c9816121b6565b82525050565b600060808201905081810360008301526121e9818761216e565b90506121f860208301866121a7565b818103604083015261220a818561216e565b905061221960608301846121c0565b95945050505050565b7f43697479206e616d652063616e6e6f7420626520656d70747900000000000000600082015250565b6000612258601983612133565b915061226382612222565b602082019050919050565b600060208201905081810360008301526122878161224b565b9050919050565b7f4f7261636c652061646472657373206e6f7420636f6e66696775726564000000600082015250565b60006122c4601d83612133565b91506122cf8261228e565b602082019050919050565b600060208201905081810360008301526122f3816122b7565b9050919050565b7f4a6f62204944206e6f7420636f6e666967757265640000000000000000000000600082015250565b6000612330601583612133565b915061233b826122fa565b602082019050919050565b6000602082019050818103600083015261235f81612323565b9050919050565b7f496e73756666696369656e74207061796d656e7420666f72207765617468657260008201527f2072657175657374000000000000000000000000000000000000000000000000602082015250565b60006123c2602883612133565b91506123cd82612366565b604082019050919050565b600060208201905081810360008301526123f1816123b5565b9050919050565b7f4e487b7100000000000000000000000000000000000000000000000000000000600052602260045260246000fd5b6000600282049050600182168061243f57607f821691505b602082108103612452576124516123f8565b5b50919050565b60008190508160005260206000209050919050565b60006020601f8301049050919050565b600082821b905092915050565b6000600883026124ba7fffffffffffffffffffffffffffffffffffffffffffffffffffffffffffffffff8261247d565b6124c4868361247d565b95508019841693508086168417925050509392505050565b6000819050919050565b60006125016124fc6124f7846121b6565b6124dc565b6121b6565b9050919050565b6000819050919050565b61251b836124e6565b61252f61252782612508565b84845461248a565b825550505050565b600090565b612544612537565b61254f818484612512565b505050565b5b818110156125735761256860008261253c565b600181019050612555565b5050565b601f8211156125b85761258981612458565b6125928461246d565b810160208510156125a1578190505b6125b56125ad8561246d565b830182612554565b50505b505050565b600082821c905092915050565b60006125db600019846008026125bd565b1980831691505092915050565b60006125f483836125ca565b9150826002028217905092915050565b61260d82612128565b67ffffffffffffffff81111561262657612625611d55565b5b6126308254612427565b61263b828285612577565b600060209050601f83116001811461266e576000841561265c578287015190505b61266685826125e8565b8655506126ce565b601f19841661267c86612458565b60005b828110156126a45784890151825560018201915060208501945060208101905061267f565b868310156126c157848901516126bd601f8916826125ca565b8355505b6001600288020188555050505b505050505050565b600060208201905081810360008301526126f0818461216e565b905092915050565b7f536f75726365206d75737420626520746865206f7261636c65206f662074686560008201527f2072657175657374000000000000000000000000000000000000000000000000602082015250565b6000612754602883612133565b915061275f826126f8565b604082019050919050565b6000602082019050818103600083015261278381612747565b9050919050565b7f4e487b7100000000000000000000000000000000000000000000000000000000600052601160045260246000fd5b60006127c4826121b6565b91506127cf836121b6565b92508282039050818111156127e7576127e661278a565b5b92915050565b7f4e487b7100000000000000000000000000000000000000000000000000000000600052603260045260246000fd5b6000612827826121b6565b9150612832836121b6565b925082820190508082111561284a5761284961278a565b5b92915050565b600061285b826121b6565b91507fffffffffffffffffffffffffffffffffffffffffffffffffffffffffffffffff820361288d5761288c61278a565b5b600182019050919050565b600081905092915050565b60006128ae82612128565b6128b88185612898565b93506128c8818560208601612144565b80840191505092915050565b6000819050919050565b6128ef6128ea826121b6565b6128d4565b82525050565b600061290182856128a3565b915061290d82846128de565b6020820191508190509392505050565b600061292882612067565b915061293383612067565b925082820261294181612067565b91507f800000000000000000000000000000000000000000000000000000000000000084146000841216156129795761297861278a565b5b828205841483151761298e5761298d61278a565b5b5092915050565b600060ff82169050919050565b60006129ad82612995565b91506129b883612995565b9250828203905060ff8111156129d1576129d061278a565b5b92915050565b60006129e282612067565b91506129ed83612067565b925082820190508281121560008312168382126000841215161715612a1557612a1461278a565b5b92915050565b6000612a2682612067565b91507f80000000000000000000000000000000000000000000000000000000000000008203612a5857612a5761278a565b5b816000039050919050565b60007fffffffff0000000000000000000000000000000000000000000000000000000082169050919050565b612a9881612a63565b82525050565b600081519050919050565b600082825260208201905092915050565b6000612ac582612a9e565b612acf8185612aa9565b9350612adf818560208601612144565b612ae881611d44565b840191505092915050565b600061010082019050612b09600083018b61203d565b612b16602083018a6121c0565b612b236040830189611ed3565b612b30606083018861203d565b612b3d6080830187612a8f565b612b4a60a08301866121c0565b612b5760c08301856121c0565b81810360e0830152612b698184612aba565b90509998505050505050505050565b7f4e487b7100000000000000000000000000000000000000000000000000000000600052601260045260246000fd5b6000612bb2826121b6565b9150612bbd836121b6565b925082612bcd57612bcc612b78565b5b828206905092915050565b6000612bf3612bee612be984611fb2565b6124dc565b611fb2565b9050919050565b6000612c0582612bd8565b9050919050565b6000612c1782612bfa565b9050919050565b60008160601b9050919050565b6000612c3682612c1e565b9050919050565b6000612c4882612c2b565b9050919050565b612c60612c5b82612c0c565b612c3d565b82525050565b6000612c728285612c4f565b601482019150612c8282846128de565b6020820191508190509392505050565b6000606082019050612ca7600083018661203d565b612cb460208301856121c0565b8181036040830152612cc68184612aba565b9050949350505050565b60008115159050919050565b612ce581612cd0565b8114612cf057600080fd5b50565b600081519050612d0281612cdc565b92915050565b600060208284031215612d1e57612d1d611d30565b5b6000612d2c84828501612cf3565b91505092915050565b7f756e61626c6520746f207472616e73666572416e6443616c6c20746f206f726160008201527f636c650000000000000000000000000000000000000000000000000000000000602082015250565b6000612d91602383612133565b9150612d9c82612d35565b604082019050919050565b60006020820190508181036000830152612dc081612d84565b905091905056fea2646970667358221220850361001a3ddcb55692f7d5bf19ab7ca256ca7ff6e08a8015c4d20ab0dd7bf364736f6c63430008140033",
  "linkReferences": {},
  "deployedLinkReferences": {}
}