{
  "_format": "hh-sol-artifact-1",
  "contractName": "WeatherOracle",
  "sourceName": "contracts/WeatherOracle.sol",
  "abi": [
    {
      "inputs": [
        {
          "internalType": "address",
          "name": "_link",
          "type": "address"
        },
        {
          "internalType": "address",
          "name": "_oracle",
          "type": "address"
        },
        {
          "internalType": "bytes32",
          "name": "_jobId",
          "type": "bytes32"
        }
      ],
      "stateMutability": "nonpayable",
      "type": "constructor"
    },
    {
      "inputs": [
        {
          "internalType": "address",
          "name": "owner",
          "type": "address"
        }
      ],
      "name": "OwnableInvalidOwner",
      "type": "error"
    },
    {
      "inputs": [
        {
          "internalType": "address",
          "name": "account",
          "type": "address"
        }
      ],
      "name": "OwnableUnauthorizedAccount",
      "type": "error"
    },
    {
      "anonymous": false,
      "inputs": [
        {
          "indexed": true,
          "internalType": "bytes32",
          "name": "id",
          "type": "bytes32"
        }
      ],
      "name": "ChainlinkCancelled",
      "type": "event"
    },
    {
      "anonymous": false,
      "inputs": [
        {
          "indexed": true,
          "internalType": "bytes32",
          "name": "id",
          "type": "bytes32"
        }
      ],
      "name": "ChainlinkFulfilled",
      "type": "event"
    },
    {
      "anonymous": false,
      "inputs": [
        {
          "indexed": true,
          "internalType": "bytes32",
          "name": "id",
          "type": "bytes32"
        }
      ],
      "name": "ChainlinkRequested",
      "type": "event"
    },
    {
      "anonymous": false,
      "inputs": [
        {
          "indexed": true,
          "internalType": "address",
          "name": "previousOwner",
          "type": "address"
        },
        {
          "indexed": true,
          "internalType": "address",
          "name": "newOwner",
          "type": "address"
        }
      ],
      "name": "OwnershipTransferred",
      "type": "event"
    },
    {
      "anonymous": false,
      "inputs": [
        {
          "indexed": true,
          "internalType": "bytes32",
          "name": "requestId",
          "type": "bytes32"
        },
        {
          "indexed": false,
          "internalType": "string",
          "name": "city",
          "type": "string"
        },
        {
          "indexed": false,
          "internalType": "int256",
          "name": "temperature",
          "type": "int256"
        },
        {
          "indexed": false,
          "internalType": "string",
          "name": "description",
          "type": "string"
        },
        {
          "indexed": false,
          "internalType": "uint256",
          "name": "timestamp",
          "type": "uint256"
        }
      ],
      "name": "WeatherReported",
      "type": "event"
    },
    {
      "anonymous": false,
      "inputs": [
        {
          "indexed": true,
          "internalType": "bytes32",
          "name": "requestId",
          "type": "bytes32"
        },
        {
          "indexed": false,
          "internalType": "string",
          "name": "city",
          "type": "string"
        },
        {
          "indexed": true,
          "internalType": "address",
          "name": "requester",
          "type": "address"
        }
      ],
      "name": "WeatherRequested",
      "type": "event"
    },
    {
      "inputs": [],
      "name": "chainlinkToken",
      "outputs": [
        {
          "internalType": "address",
          "name": "",
          "type": "address"
        }
      ],
      "stateMutability": "view",
      "type": "function"
    },
    {
      "inputs": [
        {
          "internalType": "bytes32",
          "name": "_requestId",
          "type": "bytes32"
        },
        {
          "internalType": "string",
          "name": "_weatherData",
          "type": "string"
        }
      ],
      "name": "fulfill",
      "outputs": [],
      "stateMutability": "nonpayable",
      "type": "function"
    },
    {
      "inputs": [],
      "name": "jobId",
      "outputs": [
        {
          "internalType": "bytes32",
          "name": "",
          "type": "bytes32"
        }
      ],
      "stateMutability": "view",
      "type": "function"
    },
    {
      "inputs": [],
      "name": "oracle",
      "outputs": [
        {
          "internalType": "address",
          "name": "",
          "type": "address"
        }
      ],
      "stateMutability": "view",
      "type": "function"
    },
    {
      "inputs": [],
      "name": "owner",
      "outputs": [
        {
          "internalType": "address",
          "name": "",
          "type": "address"
        }
      ],
      "stateMutability": "view",
      "type": "function"
    },
    {
      "inputs": [],
      "name": "renounceOwnership",
      "outputs": [],
      "stateMutability": "nonpayable",
      "type": "function"
    },
    {
      "inputs": [
        {
          "internalType": "string",
          "name": "_city",
          "type": "string"
        }
      ],
      "name": "requestWeather",
      "outputs": [
        {
          "internalType": "bytes32",
          "name": "requestId",
          "type": "bytes32"
        }
      ],
      "stateMutability": "payable",
      "type": "function"
    },
    {
      "inputs": [
        {
          "internalType": "address",
          "name": "_oracle",
          "type": "address"
        }
      ],
      "name": "setChainlinkOracle",
      "outputs": [],
      "stateMutability": "nonpayable",
      "type": "function"
    },
    {
      "inputs": [
        {
          "internalType": "bytes32",
          "name": "_jobId",
          "type": "bytes32"
        }
      ],
      "name": "setJobId",
      "outputs": [],
      "stateMutability": "nonpayable",
      "type": "function"
    },
    {
      "inputs": [
        {
          "internalType": "address",
          "name": "newOwner",
          "type": "address"
        }
      ],
      "name": "transferOwnership",
      "outputs": [],
      "stateMutability": "nonpayable",
      "type": "function"
    },
    {
      "inputs": [
        {
          "internalType": "bytes32",
          "name": "",
          "type": "bytes32"
        }
      ],
      "name": "weatherReports",
      "outputs": [
        {
          "internalType": "string",
          "name": "city",
          "type": "string"
        },
        {
          "internalType": "int256",
          "name": "temperature",
          "type": "int256"
        },
        {
          "internalType": "string",
          "name": "description",
          "type": "string"
        },
        {
          "internalType": "uint256",
          "name": "timestamp",
          "type": "uint256"
        }
      ],
      "stateMutability": "view",
      "type": "function"
    },
    {
      "stateMutability": "payable",
      "type": "receive"
    }
  ],
  "bytecode": "0x608060405260016004553480156200001657600080fd5b5060405162001e7c38038062001e7c83398181016040528101906200003c91906200036b565b33600073ffffffffffffffffffffffffffffffffffffffff168173ffffffffffffffffffffffffffffffffffffffff1603620000b25760006040517f1e4fbdf7000000000000000000000000000000000000000000000000000000008152600401620000a99190620003d8565b60405180910390fd5b620000c3816200017860201b60201c565b50620000d5836200023e60201b60201c565b620000e6826200028260201b60201c565b80600b8190555082600960006101000a81548173ffffffffffffffffffffffffffffffffffffffff021916908373ffffffffffffffffffffffffffffffffffffffff16021790555081600a60006101000a81548173ffffffffffffffffffffffffffffffffffffffff021916908373ffffffffffffffffffffffffffffffffffffffff160217905550505050620003f5565b6000600660009054906101000a900473ffffffffffffffffffffffffffffffffffffffff16905081600660006101000a81548173ffffffffffffffffffffffffffffffffffffffff021916908373ffffffffffffffffffffffffffffffffffffffff1602179055508173ffffffffffffffffffffffffffffffffffffffff168173ffffffffffffffffffffffffffffffffffffffff167f8be0079c531659141344cd1fd0a4f28419497f9722a3daafe3b4186f6b6457e060405160405180910390a35050565b80600260006101000a81548173ffffffffffffffffffffffffffffffffffffffff021916908373ffffffffffffffffffffffffffffffffffffffff16021790555050565b80600360006101000a81548173ffffffffffffffffffffffffffffffffffffffff021916908373ffffffffffffffffffffffffffffffffffffffff16021790555050565b600080fd5b600073ffffffffffffffffffffffffffffffffffffffff82169050919050565b6000620002f882620002cb565b9050919050565b6200030a81620002eb565b81146200031657600080fd5b50565b6000815190506200032a81620002ff565b92915050565b6000819050919050565b620003458162000330565b81146200035157600080fd5b50565b60008151905062000365816200033a565b92915050565b600080600060608486031215620003875762000386620002c6565b5b6000620003978682870162000319565b9350506020620003aa8682870162000319565b9250506040620003bd8682870162000354565b9150509250925092565b620003d281620002eb565b82525050565b6000602082019050620003ef6000830184620003c7565b92915050565b611a7780620004056000396000f3fe6080604052600436106100a05760003560e01c80637dc0d1d0116100645780637dc0d1d01461016e5780638da5cb5b14610199578063c247afe4146101c4578063c2939d9714610204578063f10ecc651461022f578063f2fde38b1461025a576100a7565b80631829ca52146100ac57806337441996146100dc578063508954f814610105578063715018a61461012e5780637a9b041214610145576100a7565b366100a757005b600080fd5b6100c660048036038101906100c19190610fa8565b610283565b6040516100d3919061100a565b60405180910390f35b3480156100e857600080fd5b5061010360048036038101906100fe9190611051565b610326565b005b34801561011157600080fd5b5061012c600480360381019061012791906110ad565b61058e565b005b34801561013a57600080fd5b506101436105a0565b005b34801561015157600080fd5b5061016c60048036038101906101679190611138565b6105b4565b005b34801561017a57600080fd5b50610183610609565b6040516101909190611174565b60405180910390f35b3480156101a557600080fd5b506101ae61062f565b6040516101bb9190611174565b60405180910390f35b3480156101d057600080fd5b506101eb60048036038101906101e691906110ad565b610659565b6040516101fb9493929190611240565b60405180910390f35b34801561021057600080fd5b50610219610799565b604051610226919061100a565b60405180910390f35b34801561023b57600080fd5b5061024461079f565b6040516102519190611174565b60405180910390f35b34801561026657600080fd5b50610281600480360381019061027c9190611138565b6107c5565b005b60008061029a600b5430633744199660e01b61084b565b90506102ae8167016345785d8a000061087c565b9150826008600084815260200190815260200160002090816102d0919061149f565b503373ffffffffffffffffffffffffffffffffffffffff16827f57b7f15c3d8e2616844c1a30ad34cd61e5d36ac0f425bc9439bc614fa2ad2fbd856040516103189190611571565b60405180910390a350919050565b816005600082815260200190815260200160002060009054906101000a900473ffffffffffffffffffffffffffffffffffffffff1673ffffffffffffffffffffffffffffffffffffffff163373ffffffffffffffffffffffffffffffffffffffff16146103c8576040517f08c379a00000000000000000000000000000000000000000000000000000000081526004016103bf90611605565b60405180910390fd5b6005600082815260200190815260200160002060006101000a81549073ffffffffffffffffffffffffffffffffffffffff0219169055807f7cc135e0cebb02c3480ae5d74d377283180a2601f8f644edf7987b009316c63a60405160405180910390a26000808390506000600860008781526020019081526020016000208054610451906112c2565b80601f016020809104026020016040519081016040528092919081815260200182805461047d906112c2565b80156104ca5780601f1061049f576101008083540402835291602001916104ca565b820191906000526020600020905b8154815290600101906020018083116104ad57829003601f168201915b5050505050905060405180608001604052808281526020018481526020018381526020014281525060076000888152602001908152602001600020600082015181600001908161051a919061149f565b5060208201518160010155604082015181600201908161053a919061149f565b5060608201518160030155905050857f2e401731ceb81f2aaa55c615a658acc8ec0c47a497b4853a4df9b94f8b887f298285854260405161057e9493929190611240565b60405180910390a2505050505050565b6105966108b3565b80600b8190555050565b6105a86108b3565b6105b2600061093a565b565b6105bc6108b3565b80600a60006101000a81548173ffffffffffffffffffffffffffffffffffffffff021916908373ffffffffffffffffffffffffffffffffffffffff16021790555061060681610a00565b50565b600a60009054906101000a900473ffffffffffffffffffffffffffffffffffffffff1681565b6000600660009054906101000a900473ffffffffffffffffffffffffffffffffffffffff16905090565b600760205280600052604060002060009150905080600001805461067c906112c2565b80601f01602080910402602001604051908101604052809291908181526020018280546106a8906112c2565b80156106f55780601f106106ca576101008083540402835291602001916106f5565b820191906000526020600020905b8154815290600101906020018083116106d857829003601f168201915b505050505090806001015490806002018054610710906112c2565b80601f016020809104026020016040519081016040528092919081815260200182805461073c906112c2565b80156107895780601f1061075e57610100808354040283529160200191610789565b820191906000526020600020905b81548152906001019060200180831161076c57829003601f168201915b5050505050908060030154905084565b600b5481565b600960009054906101000a900473ffffffffffffffffffffffffffffffffffffffff1681565b6107cd6108b3565b600073ffffffffffffffffffffffffffffffffffffffff168173ffffffffffffffffffffffffffffffffffffffff160361083f5760006040517f1e4fbdf70000000000000000000000000000000000000000000000000000000081526004016108369190611174565b60405180910390fd5b6108488161093a565b50565b610853610dc7565b61085b610dc7565b61087285858584610a44909392919063ffffffff16565b9150509392505050565b60006108ab600360009054906101000a900473ffffffffffffffffffffffffffffffffffffffff168484610af4565b905092915050565b6108bb610bc0565b73ffffffffffffffffffffffffffffffffffffffff166108d961062f565b73ffffffffffffffffffffffffffffffffffffffff1614610938576108fc610bc0565b6040517f118cdaa700000000000000000000000000000000000000000000000000000000815260040161092f9190611174565b60405180910390fd5b565b6000600660009054906101000a900473ffffffffffffffffffffffffffffffffffffffff16905081600660006101000a81548173ffffffffffffffffffffffffffffffffffffffff021916908373ffffffffffffffffffffffffffffffffffffffff1602179055508173ffffffffffffffffffffffffffffffffffffffff168173ffffffffffffffffffffffffffffffffffffffff167f8be0079c531659141344cd1fd0a4f28419497f9722a3daafe3b4186f6b6457e060405160405180910390a35050565b80600360006101000a81548173ffffffffffffffffffffffffffffffffffffffff021916908373ffffffffffffffffffffffffffffffffffffffff16021790555050565b610a4c610dc7565b610a5c8560800151610100610bc8565b508385600001818152505082856020019073ffffffffffffffffffffffffffffffffffffffff16908173ffffffffffffffffffffffffffffffffffffffff16815250508185604001907bffffffffffffffffffffffffffffffffffffffffffffffffffffffff191690817bffffffffffffffffffffffffffffffffffffffffffffffffffffffff191681525050849050949350505050565b6000806004549050600181610b099190611654565b6004819055506000634042994660e01b60008087600001513089604001518760018c6080015160000151604051602401610b4a989796959493929190611718565b604051602081830303815290604052907bffffffffffffffffffffffffffffffffffffffffffffffffffffffff19166020820180517bffffffffffffffffffffffffffffffffffffffffffffffffffffffff83818316178352505050509050610bb586838684610c32565b925050509392505050565b600033905090565b610bd0610e34565b6000602083610bdf91906117cc565b14610c0b57602082610bf191906117cc565b6020610bfd91906117fd565b82610c089190611654565b91505b81836020018181525050604051808452600081528281016020016040525082905092915050565b60003084604051602001610c479291906118e0565b604051602081830303815290604052805190602001209050846005600083815260200190815260200160002060006101000a81548173ffffffffffffffffffffffffffffffffffffffff021916908373ffffffffffffffffffffffffffffffffffffffff160217905550807fb5e6e01e79f91267dc17b4e6314d5d4d03593d2ceee0fbb452b750bd70ea5af960405160405180910390a2600260009054906101000a900473ffffffffffffffffffffffffffffffffffffffff1673ffffffffffffffffffffffffffffffffffffffff16634000aea08685856040518463ffffffff1660e01b8152600401610d3d9392919061190c565b6020604051808303816000875af1158015610d5c573d6000803e3d6000fd5b505050506040513d601f19601f82011682018060405250810190610d809190611982565b610dbf576040517f08c379a0000000000000000000000000000000000000000000000000000000008152600401610db690611a21565b60405180910390fd5b949350505050565b6040518060a0016040528060008019168152602001600073ffffffffffffffffffffffffffffffffffffffff16815260200160007bffffffffffffffffffffffffffffffffffffffffffffffffffffffff1916815260200160008152602001610e2e610e34565b81525090565b604051806040016040528060608152602001600081525090565b6000604051905090565b600080fd5b600080fd5b600080fd5b600080fd5b6000601f19601f8301169050919050565b7f4e487b7100000000000000000000000000000000000000000000000000000000600052604160045260246000fd5b610eb582610e6c565b810181811067ffffffffffffffff82111715610ed457610ed3610e7d565b5b80604052505050565b6000610ee7610e4e565b9050610ef38282610eac565b919050565b600067ffffffffffffffff821115610f1357610f12610e7d565b5b610f1c82610e6c565b9050602081019050919050565b82818337600083830152505050565b6000610f4b610f4684610ef8565b610edd565b905082815260208101848484011115610f6757610f66610e67565b5b610f72848285610f29565b509392505050565b600082601f830112610f8f57610f8e610e62565b5b8135610f9f848260208601610f38565b91505092915050565b600060208284031215610fbe57610fbd610e58565b5b600082013567ffffffffffffffff811115610fdc57610fdb610e5d565b5b610fe884828501610f7a565b91505092915050565b6000819050919050565b61100481610ff1565b82525050565b600060208201905061101f6000830184610ffb565b92915050565b61102e81610ff1565b811461103957600080fd5b50565b60008135905061104b81611025565b92915050565b6000806040838503121561106857611067610e58565b5b60006110768582860161103c565b925050602083013567ffffffffffffffff81111561109757611096610e5d565b5b6110a385828601610f7a565b9150509250929050565b6000602082840312156110c3576110c2610e58565b5b60006110d18482850161103c565b91505092915050565b600073ffffffffffffffffffffffffffffffffffffffff82169050919050565b6000611105826110da565b9050919050565b611115816110fa565b811461112057600080fd5b50565b6000813590506111328161110c565b92915050565b60006020828403121561114e5761114d610e58565b5b600061115c84828501611123565b91505092915050565b61116e816110fa565b82525050565b60006020820190506111896000830184611165565b92915050565b600081519050919050565b600082825260208201905092915050565b60005b838110156111c95780820151818401526020810190506111ae565b60008484015250505050565b60006111e08261118f565b6111ea818561119a565b93506111fa8185602086016111ab565b61120381610e6c565b840191505092915050565b6000819050919050565b6112218161120e565b82525050565b6000819050919050565b61123a81611227565b82525050565b6000608082019050818103600083015261125a81876111d5565b90506112696020830186611218565b818103604083015261127b81856111d5565b905061128a6060830184611231565b95945050505050565b7f4e487b7100000000000000000000000000000000000000000000000000000000600052602260045260246000fd5b600060028204905060018216806112da57607f821691505b6020821081036112ed576112ec611293565b5b50919050565b60008190508160005260206000209050919050565b60006020601f8301049050919050565b600082821b905092915050565b6000600883026113557fffffffffffffffffffffffffffffffffffffffffffffffffffffffffffffffff82611318565b61135f8683611318565b95508019841693508086168417925050509392505050565b6000819050919050565b600061139c61139761139284611227565b611377565b611227565b9050919050565b6000819050919050565b6113b683611381565b6113ca6113c2826113a3565b848454611325565b825550505050565b600090565b6113df6113d2565b6113ea8184846113ad565b505050565b5b8181101561140e576114036000826113d7565b6001810190506113f0565b5050565b601f82111561145357611424816112f3565b61142d84611308565b8101602085101561143c578190505b61145061144885611308565b8301826113ef565b50505b505050565b600082821c905092915050565b600061147660001984600802611458565b1980831691505092915050565b600061148f8383611465565b9150826002028217905092915050565b6114a88261118f565b67ffffffffffffffff8111156114c1576114c0610e7d565b5b6114cb82546112c2565b6114d6828285611412565b600060209050601f83116001811461150957600084156114f7578287015190505b6115018582611483565b865550611569565b601f198416611517866112f3565b60005b8281101561153f5784890151825560018201915060208501945060208101905061151a565b8683101561155c5784890151611558601f891682611465565b8355505b6001600288020188555050505b505050505050565b6000602082019050818103600083015261158b81846111d5565b905092915050565b7f536f75726365206d75737420626520746865206f7261636c65206f662074686560008201527f2072657175657374000000000000000000000000000000000000000000000000602082015250565b60006115ef60288361119a565b91506115fa82611593565b604082019050919050565b6000602082019050818103600083015261161e816115e2565b9050919050565b7f4e487b7100000000000000000000000000000000000000000000000000000000600052601160045260246000fd5b600061165f82611227565b915061166a83611227565b925082820190508082111561168257611681611625565b5b92915050565b60007fffffffff0000000000000000000000000000000000000000000000000000000082169050919050565b6116bd81611688565b82525050565b600081519050919050565b600082825260208201905092915050565b60006116ea826116c3565b6116f481856116ce565b93506117048185602086016111ab565b61170d81610e6c565b840191505092915050565b60006101008201905061172e600083018b611165565b61173b602083018a611231565b6117486040830189610ffb565b6117556060830188611165565b61176260808301876116b4565b61176f60a0830186611231565b61177c60c0830185611231565b81810360e083015261178e81846116df565b90509998505050505050505050565b7f4e487b7100000000000000000000000000000000000000000000000000000000600052601260045260246000fd5b60006117d782611227565b91506117e283611227565b9250826117f2576117f161179d565b5b828206905092915050565b600061180882611227565b915061181383611227565b925082820390508181111561182b5761182a611625565b5b92915050565b600061184c611847611842846110da565b611377565b6110da565b9050919050565b600061185e82611831565b9050919050565b600061187082611853565b9050919050565b60008160601b9050919050565b600061188f82611877565b9050919050565b60006118a182611884565b9050919050565b6118b96118b482611865565b611896565b82525050565b6000819050919050565b6118da6118d582611227565b6118bf565b82525050565b60006118ec82856118a8565b6014820191506118fc82846118c9565b6020820191508190509392505050565b60006060820190506119216000830186611165565b61192e6020830185611231565b818103604083015261194081846116df565b9050949350505050565b60008115159050919050565b61195f8161194a565b811461196a57600080fd5b50565b60008151905061197c81611956565b92915050565b60006020828403121561199857611997610e58565b5b60006119a68482850161196d565b91505092915050565b7f756e61626c6520746f207472616e73666572416e6443616c6c20746f206f726160008201527f636c650000000000000000000000000000000000000000000000000000000000602082015250565b6000611a0b60238361119a565b9150611a16826119af565b604082019050919050565b60006020820190508181036000830152611a3a816119fe565b905091905056fea2646970667358221220affa22e98953aca95b1867eb1b3d4a1c23e315dd628a6cfea1c921056341111864736f6c63430008140033",
  "linkReferences": {},
  "deployedLinkReferences": {}
}